:020000040800F2
:100000006807002045020008ED2200086D1F000867
:10001000E922000881090008092500080000000005
:10002000000000000000000000000000D9230008CC
:100030008509000800000000F1220008DD23000807
:100040005F0200085F0200085F0200085F0200080C
:100050005F0200085F0200085F0200085F020008FC
:100060005F0200085F0200085F0200085F020008EC
:100070005F0200085F0200085F0200085F020008DC
:100080005F0200085F0200085F0200080000000035
:100090000000000000000000000000005F020008F7
:1000A0005F0200085F0200085F0200085F020008AC
:1000B000F5230008012400085F0200085F02000821
:1000C0005F0200085F0200085F0200085F0200088C
:1000D0005F0200085F0200085F02000800000000E5
:1000E0005F0200085F0200085F02000800000000D5
:1000F0000000000000000000000000005F02000897
:10010000000000005F0200085F0200085F020008B4
:1001100000000000000000000000000000000000DF
:100120005F0200085F0200085F0200085F0200082B
:100130005F02000800000000000000000000000056
:100140000000000000000000000000005F02000846
:100150005F0200085F0200085F0200085F020008FB
:100160005F0200085F0200080000000000000000BD
:10017000000000000000000000000000000000007F
:10018000000000005F020008000000000000000006
:100190005F02000800F002F800F045F80AA090E8BD
:1001A000000C82448344AAF10107DA4501D100F032
:1001B0003AF8AFF2090EBAE80F0013F0010F18BFBA
:1001C000FB1A43F001031847403000006030000084
:1001D000103A24BF78C878C1FAD8520724BF30C873
:1001E00030C144BF04680C60704700000023002445
:1001F00000250026103A28BF78C1FBD8520728BF37
:1002000030C148BF0B607047642900F01F81002097
:1002100070471FB502F07BFD9DE8030000F034FA43
:100220001FBD10B510BD00F029FB1146FFF7F1FF0F
:1002300002F06CF900F047FB03B4FFF7F2FF03BCD8
:1002400000F078FB0948804709480047FEE7FEE7D1
:10025000FEE7FEE7FEE7FEE7FEE7FEE7FEE7FEE776
:1002600004480549054A064B70470000E123000891
:10027000950100086801002068070020680300203D
:100280006803002070B5064600F0E2F9056806F143
:100290000B0020F00704B4429CBF002070BD2B4629
:1002A0006A68BAB11068A04210D304F1080188420C
:1002B0003CBF5068586007D35168101941601168FD
:1002C000091B016058601460101D70BD1346526810
:1002D000002AE7D12146284600F0C2F90028DED1E5
:1002E00070BD53EA020C00F069802DE9F04B4FF02D
:1002F0000006002B1FBFB3FA83F503FA05F424FAB6
:1003000005F65E4012BF1643B2FA82F502FA05F412
:10031000C5F120051EBF22FA05FC44EA0C04203575
:1003200056EA044C4FEA144418BF641C4FF000080E
:100330004FF00009904271EB030C39D3002919BF2B
:10034000B1FA81F701FA07F6B0FA80F700FA07F67A
:10035000C7F120071EBF20FA07FC46EA0C0620372B
:10036000B6FBF4FCA7EB0507103F07F01F0BCBF122
:1003700020062CFA06F60CFA0BFB44BFB346002607
:10038000202FA4BF5E464FF0000B5BEA060C08BFAF
:100390004FF0010B19EB0B0948EB0608ABFB027C95
:1003A00006FB02CC0BFB03CCC01B71EB0C01C1E7BD
:1003B0000B46024641464846BDE8F08B13B508435C
:1003C00018BF4FF0FF300146AFF30080BDE81C407E
:1003D000704700000FB41CB5074B06AA7B44694662
:1003E0000090059800F00BFA0020694600F01AFA18
:1003F0001CBC5DF814FB00004504000070B5044609
:1004000085690068C10601D5302600E02026C007B6
:1004100007D070BDD4E9012130469047206A401CC6
:1004200020626D1EF6D570BD70B5044685690078F2
:10043000C00707D170BDD4E9012120209047206A70
:10044000401C20626D1EF6D570BD00002DE9F04104
:100450000646002410687529314616A510D0AFF362
:100460000080002802DA404213A507E031688A07BD
:1004700001D512A502E0490704D511A5012401E028
:10048000AFF3008000210A2206F1240709E0B0FB47
:10049000F2FCB0FBF2F302FB1C003030785418463B
:1004A000491C0028F3D123462A463046BDE8F041D6
:1004B00000F047B9000000002D0000002B000000F4
:1004C000200000002DE9F05F894604464FF0000A45
:1004D000DFF824B1FB44C0F820A02046E16888473B
:1004E00000287DD0252806D0D4E901219047206A34
:1004F000401C2062F1E700255F462046E1688847FE
:100500002028064607DB312E05D2B81910F8200C3A
:1005100008B10543F1E7A80701D525F00405C4F8A3
:100520001CA00027C4F818A02A2E09D0304602F0DB
:10053000E7FB38B304EB8708303EC8F8186019E0D1
:1005400059F8041B204604EB87029161E168884753
:10055000012F064618D1E069002820DA25F0200591
:100560001DE0D8F8180000EB800006EB40003038A2
:10057000C8F818002046E1688847064602F0C0FB2C
:100580000028EED1012F0AD02E2E08D12046E16896
:1005900088477F1C0646022F45F02005C4DBA06972
:1005A000002803DA404245F00105A061E80701D0C8
:1005B00025F01005A6B1A6F14100192802D8203671
:1005C00045F400654A463146204625604D46FFF712
:1005D0001BFE60B1012807D0ED1D25F0070000E0EB
:1005E00007E000F1080978E705F1040975E73046EE
:1005F0007AE7206ABDE8F09F502800004FF0000223
:1006000000B5134694469646203922BFA0E80C5008
:10061000A0E80C50B1F12001BFF4F7AF090728BFE3
:10062000A0E80C5048BF0CC05DF804EB890028BF5F
:1006300040F8042B08BF704748BF20F8022B11F088
:10064000804F18BF00F8012B704770477047704704
:100650000048704718000020704770477047704787
:1006600038B504460A4600206946AFF300800028EA
:1006700008BF38BD02460099204600F0DDF8012091
:1006800038BD012000F0F2B8F8B5AFF300800546A0
:1006900000200C46102000BF0646A819A0420DD924
:1006A000324669460020AFF30080070008BF00F023
:1006B000DDF80098A04218BF0546C419FFF7C8FF2F
:1006C00005600746F01D20F007004619284600F097
:1006D0000AF8B44208BFF8BDA21B31463868BDE82D
:1006E000F84000F0A9B800210160C0E9011070478E
:1006F0001020704770B50446051FFFF7A9FF00687A
:10070000002C14BF446870BD002C18BFAC423CBF25
:1007100020466468F8D301680A18AA4218BF4560E9
:1007200003D12A6805461144016028684119A14295
:100730001CBF6C6070BD61686960216808442860F6
:1007400070BD2DE9F0470D4699469246044600F1EA
:1007500024080168880604D5E06921F010012160B1
:1007600000E00120A84201DD471B00E00027A1694D
:100770007A1902EB0900081AA0612078C00602D499
:100780002046FFF73BFE002608E0D4E901211AF8D5
:1007900006009047206A401C761C20624E45F4DB20
:1007A0002078C0060AD52046FFF728FE06E0D4E9E7
:1007B000012130209047206A401C2062381EA7F19A
:1007C0000107F4DC07E0D4E9012118F8050090479F
:1007D000206A401C2062281EA5F10105F3DC20469A
:1007E000FFF722FE2078000602D50220BDE8F08740
:1007F0000120FBE701694A1C02610878704700B5D7
:100800008FB0CDE901310021059105497944CDE949
:10081000031011466846FFF755FE0FB000BD0000FB
:10082000E5FFFFFF0A6802F8010B0A60704700004D
:100830000048704710000020034640688C4600289E
:1008400018BF88423CBF03464068F8D31868184474
:10085000884207D00CF1030020F00700001D411A68
:10086000521A0146081D0A60FFF744BF10B500F098
:1008700039F8BDE8104000F02FB870477546FFF713
:10088000D7FFAE4605006946534620F0070085466F
:1008900018B020B5FFF7E4FCBDE820404FF000069B
:1008A0004FF000074FF000084FF0000BAC46ACE8EB
:1008B000C009ACE8C009ACE8C009ACE8C00921F047
:1008C00007018D46704710B50446AFF300802046FF
:1008D000BDE81040FFF7B0BC002801D000F02AB8F6
:1008E0007047000010B5012805D0002103A000F0DA
:1008F00027F8012010BD09A1F8E70000534947522D
:10090000544D454D3A204F7574206F6620686561DF
:1009100070206D656D6F7279000000003A204865A7
:100920006170206D656D6F727920636F7272757082
:100930007465640001491820ABBEFEE72600020082
:1009400070B505460C460A2000E06D1C00F011F859
:1009500035B128780028F8D102E0641C00F009F8CD
:1009600014B120780028F8D1BDE870400A20AFF318
:10097000008008B569468DF800000320ABBE08BDB5
:10098000FEE7000070470000B0B5044600F0EAF84A
:10099000054640F20400C2F200000078611C18BF56
:1009A000044400BF00F0DEF8401BA042FAD3B0BD03
:1009B0002DE9F04F82B000F13E4241F2000502F114
:1009C000FF77C4F20205072243F6004E4FEAB7262E
:1009D000A84208BF0422C4F2010E042E38BF4FEA19
:1009E000B7220125002600274FF00008009208E0FA
:1009F00008F101080437B8F1100F06F1020600F003
:100A0000A7800C6805FA08F914EA090FF0D0D1F8AC
:100A100004B003220BF0030CACF10104B240012C32
:100A20006FEA020A10D88268CC6802EA0A02B4406F
:100A3000224382604268CBF3001422EA090204FADE
:100A400008F42243426005E0BCF1030F02D14FF0ED
:100A5000030C20E0C2688C6802EA0A02B440224318
:100A6000BCF1020FC26016D16FF0030202EA580215
:100A70000244D2F820C007F01C050F230C69AB40DC
:100A80002CEA030304FA05F52B431362D1F804B0F2
:100A900001250BF0030C02680CFA06F302EA0A02C5
:100AA0001A431BF4403F0260A2D0002243F64403E5
:100AB0000192C4F202031A684FF6084C42F48042D5
:100AC0001A601A68CFF6FF7C02F480420192019A04
:100AD00028F00302724452F80C3007F00C050F2482
:100AE000AC40A343009C04FA05F52B4342F80C30BC
:100AF000DEF808204B6842EA090543F60C4CDC029C
:100B000058BF22EA0905CEF80850C4F2010CDCF8FF
:100B100000209C0242EA090558BF22EA0905CCF8E8
:100B20000050DEF804209C0342EA090558BF22EA7F
:100B30000905CEF80450DEF80020DB0342EA09057F
:100B400058BF22EA0905CEF80050012550E700BF42
:100B500002B0BDE8F08F0000002A08BF09048161DF
:100B60007047000040F26410C2F200000068704755
:100B700040F2040040F26411C2F20000C2F200012F
:100B800000780A68104408607047000080B543F69A
:100B90000040C4F20200016841F400710160016884
:100BA00041F480610160016841F4807101600320BB
:100BB00000F088F80F2000F005F800F027F800207A
:100BC00080BD000070B540F20406C2F2000640F29B
:100BD0000C013278C2F200014FF47A730968B3FB5A
:100BE000F2F20446B1FBF2F1084600F031FE0F2CA0
:100BF0004FF0010508D838B94FF0FF3021460022E8
:100C0000002500F033F87460284670BD82B00020E3
:100C100043F640010190C4F202014A6842F4804266
:100C20004A604A6802F480420192019A0090086882
:100C300040F080500860086800F0805000900098F4
:100C400002B07047002848BF7047C1B200F01F00D3
:100C5000012202FA00F04EF20012CEF2000242EA45
:100C6000D10121F0030108607047000010B54EF675
:100C70000C5CCEF2000CDCF80030C3F3022E8EF0D8
:100C80000704042C28BF0424BEF103034FF0FF3EE9
:100C90000EFA04F438BF0023A14399400EFA03F37F
:100CA0009A43114300F00F0200F160430901043A36
:100CB00003F564436244002848BF02F10C03197035
:100CC00010BD00004EF60C51CEF200010A684FF63E
:100CD000FF031A4060F30A2242F0806040F0FD708A
:100CE000086070472DE9F041002800F08B8043F642
:100CF0000808C4F202080446D8F8F8030D4600F0CC
:100D00000700884207D288F8F853D8F8F80300F0B3
:100D10000700A84276D12068810717D5410705D57D
:100D2000D8F8001041F4E051C8F80010010705D5CB
:100D3000D8F8001041F46041C8F80010D8F800104D
:100D4000A26821F0F0011143C8F80010C0073FD19C
:100D5000D8F8F80300F00700A84207D988F8F8533C
:100D6000D8F8F80300F00700A8424BD120684107EB
:100D700007D5D8F80010E26821F4E0511143C8F813
:100D80000010000708D5D8F80000216920F4604061
:100D900040EAC100C8F8000000F054F8D8F800108C
:100DA00042F63952C1F30311C0F60002515C40F221
:100DB0000C0220FA01F140F20800C2F200000068C3
:100DC000C2F200021160FFF7FDFE0020BDE8F081D5
:100DD0006068811E022907D258F8081C89015CBF8F
:100DE0000120BDE8F08111E0012807D158F8081C66
:100DF00089035CBF0120BDE8F08107E058F8081CBA
:100E0000890703D40120BDE8F08100BFD8F80010A5
:100E100021F003010843C8F80000FFF7A3FE0646CF
:100E200041F28837D8F80000616800F00C00B0EBA0
:100E3000810F8DD0FFF796FE801BB842F2D90320B8
:100E4000BDE8F08110B543F60404C4F20204606802
:100E500000F00C0008280BD0042819BF42F2004013
:100E6000C0F2F40047F64000C0F27D1010BD00BF94
:100E7000206821682368490247F64001C0F27D11CD
:100E800000F03F02C3F388105CBF42F20041C0F2A1
:100E9000F401A1FB00010023FFF723FA21680222DD
:100EA000C1F3014102EB4101B0FBF1F010BD0000C4
:100EB0002DE9F04182B0002868D00446007843F65E
:100EC0000006C007C4F202060BD0B06800F00C00A8
:100ED000042840F09F803068800302D560680028B5
:100EE00054D0207880071AD5B06810F00C0F09D0C4
:100EF000B06800F00C00082840F0A680706840023E
:100F000000F1A2803068800702D5E06801283DD159
:100F10003068216920F0F80040EAC1003060207894
:100F2000000737D4207840074CD4A56955B3B06882
:100F300000F00C00082840F0BB80012D26D070681E
:100F4000E16900F480028A4220D1216A00F03F0268
:100F50008A421BD147F6C071626A0140B1EB821F21
:100F600014D1A16A4FF6FF73C903994300F44032CC
:100F7000A1F580318A4209D1E16A00F07060B0EBDE
:100F8000016F03D1002002B0BDE8F081012002B062
:100F9000BDE8F0816069002840F20000C4F24720FB
:100FA00076D00121C0F8801EFFF7DCFD054600BFAA
:100FB000706F8007B6D4FFF7D5FD401B0228F7D924
:100FC000DDE000BF306C10F080580AD100200190A5
:100FD000306C40F080503064306C00F080500190F4
:100FE000019847F20007C4F200073868C00541D4F1
:100FF000386840F480703860FFF7B4FD054600BFE4
:101000003868C00536D4FFF7ADFD401B0228F7D97C
:10101000B5E000BFB06800F00C00082803D170688C
:1010200040023FF558AF6068B0F5803F07D0B0F59B
:10103000A02F40F08D80306840F480203060306810
:1010400040F4803030608DE0E068002852D000200D
:10105000C4F2472001210160FFF784FD054600BF6F
:10106000306880073FF554AFFFF77CFD401B022836
:10107000F6D984E0A068012805D005284ED1306F4C
:1010800040F004003067306F40F0010030674FE0FF
:101090000021C0F8801EFFF765FD0546706F8007D0
:1010A0007FF540AFFFF75EFD401B0228F6D966E0F2
:1010B0000027C4F2472700203866FFF753FD022DB2
:1010C00005460BD1306880015ED5FFF74BFD401B14
:1010D00002284FF00300F5D955E700BF30688001C2
:1010E0007FF550AFFFF73EFD401B02284FF0030095
:1010F000F4D948E70020C4F2472000210160FFF73F
:1011000031FD0546306880077FF509AFFFF72AFDFE
:10111000401B02284FF00300F4D934E7316F002858
:1011200021F001013167316F21F0040131674DD0A9
:10113000FFF718FD054641F2883700BF306F800782
:1011400056D4FFF70FFD401BB842F7D917E000BF98
:101150003168002821F480313160316821F4802128
:1011600031604FD0FFF7FEFC054600BF30688003BA
:101170003FF5B7AEFFF7F6FC401B6428F6D9032015
:1011800002B0BDE8F08100BF04F11C052FCD08437B
:1011900040EA8210D9034FF6FF729143A1F58031E6
:1011A00040EA05600843706001203866FFF7DAFC0A
:1011B000044600BF306880013FF5E4AEFFF7D2FC83
:1011C000001B02284FF00300F4D9DCE6FFF7CAFC4D
:1011D000054641F2883700BF306F800708D5FFF71A
:1011E000C1FC401BB8424FF00300F5D9CBE600BF6D
:1011F000B8F1000F7FF499AE306C20F0805030646D
:1012000093E600BFFFF7AEFC054600BF30688003E1
:101210007FF567AEFFF7A6FC401B64284FF0030084
:10122000F4D9B0E670B538B10446406A30B1002058
:10123000206104F1140007E0012070BD6068B0F582
:10124000827F03D004F11C00002101600026A66209
:1012500094F8510020B9204684F8506000F03CF822
:10126000022084F8510094E80F0001F482710568AF
:1012700002F4044225F040050560114403F40062C5
:101280002369114403F002026369114403F001026F
:10129000A369E569114403F40072114405F03802B2
:1012A000256A114405F08002A56A114305F4005235
:1012B00011430160626A042101EA134102F0100245
:1012C00011444160C16921F40061C161012066657A
:1012D00084F85100304670BD80B586B0016843F295
:1012E0000000C4F20100814202D006B080BD00BF00
:1012F000002143F630020191C4F20202536900F565
:10130000504043F480535361536903F48053019375
:10131000019B0191136843F001031360126802F00E
:1013200001020192019AF02201920222CDE90221EA
:10133000032104910521059101A9FFF739FB06B0AE
:1013400080BD00002DE9F04381B0044640681D4691
:101350001746B0F5827F0E4601D1A068E0B394F83D
:101360005000012804D1022001B0BDE8F08300BF85
:101370004FF0010984F85090FFF7F4FB94F85110F6
:10138000012927D18046002E4FF0010018BF002F01
:1013900000F0C9800420002184F851006165A66333
:1013A000A787E7872163A186E186A2682068B2F556
:1013B000004F216461644BD00168490653D5E16850
:1013C000E08F002957D0002800F08680681C1CD1CF
:1013D0002DE000BF0220A6E0042084F85100204642
:1013E000314632463B46009500F0A6F801B0BDE814
:1013F000F08300BFC068A16B21F8020BA163E08FEE
:101400000138E087E08F002866D020688168C9072E
:10141000F0D1FFF7A7FBA0EB0800A842F2D303200E
:1014200081E000BFFFF79EFBE08F002854D02068CA
:101430008168C907F6D0C068A16B21F8020BA163CF
:10144000E08F0138E087E08F0028F0D144E000BF52
:10145000016821F040010160016821F480410160D0
:1014600001684906ABD4016841F040010160E168C0
:10147000E08F0029A7D178B3681C0CD11CE000BF15
:10148000007BA16B0870A06B0130A063E08F013876
:10149000E087E08F00B320688168C907F0D1FFF7CB
:1014A00061FBA0EB0800A842F3D303203BE000BFA0
:1014B000FFF758FBE08F78B120688168C907F7D043
:1014C000007BA16B0870A06B0130A063E08F013836
:1014D000E087E08F0028EFD16068B0F5827F0ED101
:1014E000A068B0F5004F02D0B0F5806F0AD1216836
:1014F000B0F5806F0A6822F040020A6002D12046EF
:10150000012101E0204680212A46434600F0F2FEF8
:1015100028B1606D40F02000606520206065606D3E
:10152000002818BF0120002184F8519084F8501041
:1015300001B0BDE8F08300002DE9F04383B004461C
:1015400090F85000012803D1022003B0BDE8F083D9
:1015500001201E4615460F4684F85000FFF702FB97
:1015600094F851108146012940F09880002F4FF0E7
:10157000010018BF002D00F09E80002E00F09B801F
:1015800094F85100002104281CBF052084F8510064
:101590006165A563E687A6872763E6862068A68639
:1015A000216461640168490603D4016841F0400187
:1015B00001606168731EE268B1FA81F1B3FA83F3E6
:1015C000DDF8288049095B09B2F5006F41EA0301A3
:1015D0007AD131B137F8021BC1602763E08E013840
:1015E000E086012518F1010031D101E0FFF7BAFAD8
:1015F000E08E18B9E08F002800F0D0802068816864
:1016000089070CD5E18E51B1012D08D1216B002540
:1016100031F8022BC2602163E18E0139E1868168D5
:10162000C907E3D0E18F0029E0D0C068A16B012594
:1016300021F8020BA163E08F0138E087D6E700BFF5
:10164000FFF790FAA0EB0900404580F0FD80E08EA6
:1016500018B9E08F002800F0A18020688168890710
:101660000CD5E18E51B1012D08D1216B002531F847
:10167000022BC2602163E18E0139E1868168C907CE
:10168000DED0E18F0029DBD0C068A16B012521F8F5
:10169000020BA163E08F0138E087D1E76068B0F505
:1016A000827F07D1A06800284FF0020008BF0429FC
:1016B00001D15BE70220012184F85110002184F858
:1016C000501003B0BDE8F08339B139780173206B55
:1016D00001302063E08E0138E086012518F1010019
:1016E00033D101E0FFF73EFAE08E10B9E08F002819
:1016F00054D02068816889070ED5E18E61B1012D33
:101700000AD1216B002509780173216B2068013112
:101710002163E18E0139E1868168C907E2D0E18F5A
:101720000029DFD0C068A16B01250870A06B0130D3
:10173000A063E08F0138E087D4E700BFFFF712FA1B
:10174000A0EB0900404580F08180E08E08B9E08F71
:1017500020B32068816889070ED5E18E61B1012D23
:101760000AD1216B002509780173216B20680131B2
:101770002163E18E0139E1868168C907DED0E18FFE
:101780000029DBD0C068A16B01250870A06B013077
:10179000A063E08F0138E087D0E700BF40F20C0083
:1017A000C2F20000006849F68171C1F25E61A0FBDF
:1017B0000101480D4FF47A71484302906068B0F51A
:1017C000827F0FD12046802142464B4600F092FD99
:1017D00060B3606D40F020006065202060650120EE
:1017E00069E700BF029808B30298013802902068A8
:1017F000806800061AD50298C0B10298013802909C
:1018000020688068000611D5029878B102980138E6
:10181000029020688068000608D5029830B10298CE
:1018200001380290206880680006DBD4A068002898
:101830004FF000007FF43FAF01902168CA68019229
:1018400089680191019936E7032034E7032032E7E4
:10185000411E0020B0EB116F1CBF012070474EF2FB
:101860001002CEF2000251604EF62351CEF200017A
:10187000F0230B70072190601160704770470000E3
:101880007047000010B590F83C20012A4FF002028A
:101890003ED080F83D200268D2F804E0D2F808C0BB
:1018A0000C682EF07003234340F6FF34C4F20004AA
:1018B000A242536010DCB2F1804F1ED040F20043D0
:1018C000C4F200039A4218D040F60003C4F20003A9
:1018D0009A4212D016E000BF40F60043C4F2000363
:1018E0009A420AD044F20003C4F201039A4204D09F
:1018F0000023C4F201039A4204D149682CF080030A
:10190000194391600121002280F83D1080F83C20AD
:10191000104610BD002804BF0120704710B50446D2
:1019200090F83D0028B9002084F83C00204600F0E3
:101930008FF8022084F83D00206840F2FF730268AF
:10194000C4F2000340F2000C9842C4F2010C1DDD09
:1019500040F60001C4F20001884220D060451ED04C
:1019600040F60041C4F20001884218D04FF6FF71E2
:10197000C4F2000188421CDC984225DCB0F1804FA3
:101980003AD040F20041C4F2000133E0B0F1804FA0
:1019900005D040F20041C4F200018842E6D1A168BE
:1019A00022F070020A434FF6FF71C4F20001884230
:1019B000E2DD44F2FF31C4F20101884210DC6045EF
:1019C0001AD044F2000113E040F60001C4F2000115
:1019D000884211D040F60041C4F200010AE000BF85
:1019E00044F60001C4F20101884205D044F20041EE
:1019F000C4F20101884203D1216922F440720A43F2
:101A0000A36922F08001D4F804E0E268194360453C
:101A10000160C262C0F828E002D16169CCF83010E0
:101A200001214161002084F8461084F83E1084F8BA
:101A30003F1084F8401084F8411084F8421084F874
:101A4000431084F8441084F8451084F83D1010BD0C
:101A500010B582B0006840F20041C4F20001884233
:101A600014D0B0F1804F2DD10020019043F64000FA
:101A7000C4F2020001681C2441F001010160006809
:101A800000F001000190019810E000BF00200090DC
:101A900043F64000C4F2020001681D2441F0020137
:101AA0000160006800F002000090009820460021CC
:101AB0000022FFF7DBF8204602B0BDE81040FFF738
:101AC000C1B800BF02B010BD90F83D1001291CBF85
:101AD00001207047022180F83D10006840F6FF3277
:101AE000C168C4F20002904241F00101C1600FDC04
:101AF000B0F1804F1DD040F20041C4F20001884295
:101B000017D040F60001C4F20001884211D017E05E
:101B100040F60041C4F2000188420AD044F20001BC
:101B2000C4F20101884204D00021C4F201018842BC
:101B300006D1816801F00701062904BF0020704723
:101B4000016841F001010160002070470146006812
:101B500041F21113026A1A4204D00122002081F8D6
:101B60003D207047026A40F244431A42F5D10268B0
:101B700022F0010202600122002081F83D2070471E
:101B800080B590F83C20012A4FF0020200F0C2809C
:101B900080F83D20D0F800C04FF67772DCF80830AE
:101BA00023EA0202CCF808200B684F2B28DC1F2BFD
:101BB00044DD202B45D0302B43D0402B40F0AC806F
:101BC000D1F804E0C968DCF82030DCF8202022F0ED
:101BD0000102CCF82020DCF8182022F0F00242EAC2
:101BE000011123F00A0242EA0E02CCF81810CCF8D8
:101BF0002020DCF8081041F0470121F0300180E09E
:101C00006F2B27DDB3F5005F48D0B3F5805F7AD046
:101C1000702B40F08180D1E901E3C968DCF808202D
:101C200043EA0E0322F47F4243EA01211143CCF838
:101C30000810DCF8081041F0770162E00BB1102BBE
:101C40006AD1DCF8081021F07001194341F0070156
:101C500057E000BF502B35D0602B5DD1D1F804E0A8
:101C6000C968DCF8203023F01003CCF82030DCF811
:101C70001830DCF8202023F4704322F0A00243EA5D
:101C8000013142EA0E12CCF81810CCF82020DCF812
:101C9000081041F0670121F0100132E0D1E901E3C1
:101CA000C968DCF8082043EA0E0322F47F4243EAC5
:101CB00001211143CCF80810DCF8081041F48041F0
:101CC0001FE000BFD1F804E0C968DCF82030DCF880
:101CD000202022F00102CCF82020DCF8182022F08D
:101CE000F00242EA011123F00A0242EA0E02CCF8A5
:101CF0001810CCF82020DCF8081041F0570121F032
:101D00002001CCF808100022012180F83D100021AC
:101D100080F83C10104680BD0122F5E770470000B6
:101D200010B5016804460869800744BFC8685FEAC7
:101D3000807039D40869400744BFC8685FEA4070C2
:101D40003ED40869000744BFC8685FEA007045D404
:101D50000869C00644BFC8685FEAC0604AD4086921
:101D6000C0071CBFC8685FEAC07051D1086900068F
:101D700044BFC8685FEA006052D40869400644BFA7
:101D8000C8685FEA406053D40869800646BFC868E7
:101D90005FEA806010BD6FF0200220460A61BDE856
:101DA0001040FFF76DBD00BF6FF002000861012019
:101DB00020778869800743D02046FFF7AFFF45E0D2
:101DC0006FF00400086102202077886910F4407FDA
:101DD00040D02046FFF7A2FF42E000BF6FF00800AE
:101DE000086104202077C86980073DD02046FFF7AE
:101DF00095FF3FE06FF01000086108202077C86968
:101E000010F4407F3AD02046FFF788FF3CE000BF47
:101E10006FF001000861204600F03EF82168A5E758
:101E20006FF0800008612046FFF728FD2168A4E7D5
:101E30006FF040000861204600F096F82168A3E7A3
:101E4000204600F025F8204600F024F82168002004
:101E500020776FE7204600F01BF8204600F01AF8C4
:101E60002168002020776CE7204600F011F820461A
:101E700000F010F821680020207769E7204600F084
:101E800007F8204600F006F821680020207766E772
:101E90007047000070470000B0B540F21C11C2F25C
:101EA000000100680968884240F27401C2F2000132
:101EB0000AD10A7841F27B440132D30863435B0CB8
:101EC000C82403FB14220A708968884218BFB0BD79
:101ED00040F60004C4F202040025204640F2FF113F
:101EE00000226561FEF738FE20464FF48071012222
:101EF000FEF732FE40F20001C2F2000140F21C1077
:101F00000D70C2F200004D70BDE8B040FFF71EBE7C
:101F1000B0B5044690F83C0001284FF0020008BF1D
:101F2000B0BD012584F83C5084F83D00204600F007
:101F30006DFA00284FF0010006D0002184F83D50D2
:101F400084F83C10B0BD00BF2068C16821F040019A
:101F5000C160C16821F48041C1600020002184F883
:101F60003D5084F83C10B0BD70470000FEE7000013
:101F700080B50020C4F202004FF400710022FEF789
:101F8000EBFD002000F008F8012000F005F8052026
:101F9000BDE88040FEF7F8BC2DE9F04740F200496B
:101FA0000546C4F202094EF2180AA9F5806005F050
:101FB00008024FF48071CEF2000AFEF7CDFD05F065
:101FC000040248464FF48061FEF7C6FD05F00202A8
:101FD00048461021FEF7C0FD05F0010248462021C9
:101FE000FEF7BAFD484680210122FEF7B5FD5AF8FA
:101FF000040C44F6D3580130C1F26208A0FB08017A
:102000008F09FEF7AFFDDAF800100546B1FBF7F4D3
:102010004FF47A76FEF7A6FDDAF80010401BB1FB0C
:10202000F7F1611A00FB06103228F3D348468021ED
:102030000022FEF791FD5AF8040C0130A0FB0801C4
:102040008D09FEF78FFDDAF800100446B1FBF5F7B5
:102050004FF47A76FEF786FDDAF80010001BB1FB2C
:10206000F5F1791A00FB06103228F3D3BDE8F087AA
:10207000F0B585B00120002401900220C4F20204D2
:1020800003904FF400706D460027009020462946CB
:102090000297FEF78DFC802004F5806600903046A4
:1020A0002946FEF785FC0820009020462946FEF7C9
:1020B0007FFC2020009030462946FEF779FC102056
:1020C000009030462946FEF773FC4FF48060009084
:1020D00030462946FEF76CFC4FF480700090204695
:1020E0002946FEF765FCFEF73DFDC72807D800BF6F
:1020F0000120FEF749FCFEF735FDC828F8D340F271
:102100007005C2F200050320A5F80170FFF744FF37
:102110000520FEF739FC0320FFF73EFF0520FEF700
:1021200033FC0320FFF738FF0520FEF72DFC0220CB
:10213000FFF732FF0520FEF727FC20464FF4007121
:102140000022FEF709FD0220FFF726FF0820FFF717
:1021500023FF0420287020464FF400710022FEF770
:10216000FBFC0020FFF718FF0C20FFF715FF2046AF
:102170004FF400710022FEF7EFFC0020FFF70CFF88
:102180000120FFF709FF0520FEF7FEFB20464FF474
:1021900000710022FEF7E0FC0020FFF7FDFE0620A4
:1021A000FFF7FAFE0520FEF7EFFB05B0F0BD0000DB
:1021B0002DE9F04F81B040F2700642F6116A012914
:1021C00088BF0021C2F20006C0F6000A40F20008F3
:1021D000B1701AF80110C4F20208144670700D189C
:1021E00040464FF400710022EFB24FF00009FEF7B5
:1021F000B3FC4FF0080B4BEA1710FFF7CDFE05F0CC
:102200000F00FFF7C9FE2578002D6AD0671C13E088
:1022100040464FF400710122FEF79EFC2009FFF7B3
:10222000BBFE05F00F00FFF7B7FE7078013070704D
:1022300017F8015B002D54D0707810281BD3B078AC
:1022400000220130C1B2012988BF0020C1B21AF8B2
:102250000140B07040464FF4007186F80190FEF7DF
:102260007BFC4BEA1410FFF797FE04F00F00FFF71A
:1022700093FE17F8015CECB20D2C17D00A2CC7D1D5
:10228000B07871780130C2B2012A88BF0020C2B292
:102290001AF80220B070541840464FF40071002222
:1022A000E5B2FEF759FC4BEA151010E0B0784FF498
:1022B0000071012888BF00201AF80040B070404625
:1022C000002286F80190FEF747FC4BEA1410FFF756
:1022D00063FE04F00F00FFF75FFE17F8015B002DAF
:1022E000AAD101B0BDE8F08FFEE70000FEE70000D4
:1022F000704700002DE9F04182B01E4690460D4621
:102300000446FEF72FFC301A00EB0807FEF72AFC04
:1023100040F20C01C2F200010968C1F3CB317943EC
:10232000019121688A682A40AA4227D1064618F1FD
:1023300001001FD0FEF716FC801BB84222D2019884
:1023400001990028A1F1010101912168896808BF64
:10235000074601EA0500A842ECD00FE08868284053
:10236000A8420BD188682840A84207D18868284035
:10237000A84203D188682840A842EFD0002002B0CC
:10238000BDE8F081D4E900014268B1F5827F22F016
:10239000E00242600AD1A168B1F5004F02D0B1F568
:1023A000806F03D1016821F040010160A16AB1F59D
:1023B000005F07D1016821F400510160016841F418
:1023C00000510160012084F85100002084F8500081
:1023D000032002B0BDE8F08170470000FEF7C8BBE3
:1023E0004EF68850CEF20000016841F470010160A1
:1023F0007047000040F21C10C2F20000FFF790BCD2
:1024000040F27C00C2F20000FFF78ABC80B5D0F831
:1024100000E0DEF80800D1E900C320F0770023F0E7
:10242000070210434FEA331340EA0C00072BCEF8A3
:10243000080009D80020DFE803F005050505092399
:102440003D5700BF80BD00BF012080BDBCF1050F1E
:1024500004BF012080BDDEF82000DEF8202022F03D
:102460000102CEF82020DEF81820096922F0F002DF
:1024700042EA0111CEF81810CEF82000002080BDED
:1024800088680969DEF82020DEF8203022F00A0290
:1024900023F00103CEF82030DEF81830104323F08B
:1024A000F00343EA0111CEF81810CEF82000002006
:1024B00080BD00BF88680969DEF8202022F0100284
:1024C000CEF82020DEF81820DEF8203022F470420A
:1024D00042EA013123F0A00242EA0010CEF81810BF
:1024E000CEF82000002080BDD1E902020969DEF8A3
:1024F0000830104323F47F4340EA01201843CEF80C
:102500000800002080BD0000FEE7000098B043F600
:10251000300647F20007C4F20206C4F20007FEF7D5
:1025200035FB6C46201D2C21FEF768F8002513951D
:10253000CDE91155CDE90F5514953069022140F0D0
:1025400080503061306900F08050149014981495D8
:10255000386861F38F303860386800F44040149078
:1025600014980120039010200490204600910695B5
:10257000FEF79EFC20B1EFF3108072B6FEE700BFBD
:102580000F200DF13C0ACDE90F0550460021CDE9A1
:1025900011551395FEF7A6FB20B1EFF3108072B62C
:1025A000FEE700BF4FF00008CDF81080CDF83C806A
:1025B000306807F5CC3540F004003060306840F2F8
:1025C000FF1100F004000F900F98CDF83C803068A8
:1025D000002240F001003060306840F2FF1400F04B
:1025E00001000F900F982846FEF7B6FA0120CDE9BA
:1025F0000108694628460094CDF80C80FEF7D8F90A
:1026000040F2C40007F54041C2F20000C0E90018E2
:102610000A21C0E90288C0E90488C0F81880C0E92E
:102620000888C0E90A81FEF7FDFD28B1EFF31080AC
:1026300072B600BFFEE700BFCDF80080306840F002
:1026400002003060306800F0020000900098FFF750
:102650000FFD14A80AF1080440F2740740F21C1A96
:1026600040F2000500F10409C2F20007C2F2000ABC
:10267000C2F20005002000210FF20862FFF798FD6A
:102680000620FDF7FFFD064640F2C400C2F200003E
:10269000314606224FF0FF33FEF754FEFFF768FC89
:1026A00030880FF2EC5100BA000C7880708800BAC4
:1026B000000CB880B0886E4600BA000CF8807A88AA
:1026C0003046FDF787FE002000213246FFF770FDFF
:1026D000BA8830460FF2C851FDF77CFE0020012178
:1026E0003246FFF765FD4FF47A70FEF74DF9FFF7BC
:1026F0003FFCFA8830460FF2B451FDF76BFE002024
:1027000000213246FFF754FD4FF47A70FEF73CF992
:102710006420FEF739F9FFF72BFC002000210FF2AF
:102720009C52FFF745FD40F200413846C4F20001DB
:10273000C9E90088C9F80880C4E90088C4F808809D
:10274000CDE90C8840F8081FB98843F67F62C0E9DC
:102750000128C0E90318C0F81880FFF7DBF800284B
:1027600040F060824FF4805007F1080B14AE1490D3
:1027700058463146FFF704FA002840F0598258467F
:102780000FA9CDE90F88FFF7C3FB002840F0568260
:1027900058460CA9FFF776F8002840F05582C9E9A1
:1027A0000088C9F80880C4E90088C4F80880CDE929
:1027B0000C887888C821484342F20041C0F2F401F5
:1027C000B1FBF0F0798841F288320138B2FBF1F1C7
:1027D0004FF08042CAE900205046CAE90281CAF897
:1027E0001080CAF81880FFF795F8002840F0328270
:1027F0004FF48050149050463146FFF7C1F900283D
:1028000040F02E8250460FA9CDE90F88FFF780FBDC
:10281000002840F02B8250460CA9FFF733F800281F
:1028200040F02A820120FEF7AFF8F888012849D14C
:10283000FFF79EFB002000210FF2C042FFF7B8FC1B
:102840006420FEF7A1F85846FFF73EF95046FFF71F
:102850003BF9287840F6140142F6DD620028C4F204
:102860000201C0F6000200F0BF816878002800F085
:10287000BB813878105C08602878002800F0B481AB
:102880006878002800F0B0813878105C08602878FB
:10289000002800F0A9816878002800F0A581387828
:1028A000105C08602878002800F09E816878002875
:1028B00000F09A813878105C086028780028D4D11C
:1028C00092E100BFF888022848D1FFF751FB0020B1
:1028D00000210FF21842FFF76BFC6420FEF754F85A
:1028E0005846FFF7F1F85046FFF7EEF8287840F623
:1028F000140142F6A5720028C4F20201C0F60002DB
:1029000000F072816878002800F06E813878105CE1
:1029100008602878002800F067816878002800F0B7
:1029200063813878105C08602878002800F05C81AA
:102930006878002800F058813878105C08602878A2
:10294000002800F051816878002800F04D81387827
:10295000105C086028780028D4D145E1F888032865
:1029600054D1FFF705FB002000210FF27C32FFF766
:102970001FFC6420FEF708F85846FFF7A5F85046FC
:10298000FFF7A2F8287840F614010028C4F20201EB
:1029900000F02A816878002800F02681387842F615
:1029A0004952C0F60002105C08602878002800F048
:1029B0001B816878002800F01781387842F6495268
:1029C000C0F60002105C08602878002800F00C8136
:1029D0006878002800F00881387842F64952C0F63D
:1029E0000002105C08602878002800F0FD806878FC
:1029F000002800F0F980387842F64952C0F600020B
:102A0000105C086028780028C4D1EDE0F88804281C
:102A100054D1FFF7ADFA00200021B1A2FFF7C8FBA7
:102A20006420FDF7B1FF5846FFF74EF85046FFF718
:102A30004BF8287840F614010028C4F2020100F097
:102A4000D3806878002800F0CF80387843F26D0298
:102A5000C0F60002105C08602878002800F0C480EE
:102A60006878002800F0C080387843F26D02C0F624
:102A70000002105C08602878002800F0B5806878B3
:102A8000002800F0B180387843F26D02C0F60002F1
:102A9000105C08602878002800F0A680687800287C
:102AA00000F0A280387843F26D02C0F60002105C9C
:102AB000086028780028C4D196E000BFF88805286F
:102AC0004CD1FFF755FA0020002182A2FFF770FBDE
:102AD0006420FDF759FF5846FEF7F6FF5046FEF713
:102AE000F3FF287840F614010028C4F202017BD0DD
:102AF0006878002878D0387843F23E12C0F6000299
:102B0000105C0860287800286ED0687800286BD0A8
:102B1000387843F23E12C0F60002105C0860287854
:102B2000002861D0687800285ED0387843F23E12E1
:102B3000C0F60002105C08602878002854D068783D
:102B4000002851D0387843F23E12C0F60002105CE3
:102B5000086028780028CBD146E000BFF888062816
:102B60004ED1FFF705FA0020002157A2FFF720FB06
:102B70006420FDF709FF5846FEF7A6FF5046FEF712
:102B8000A3FF287840F61401C4F2020160B368780C
:102B900050B3387842F61562C0F60002105C086047
:102BA000287808B36878F8B1387842F61562C0F62C
:102BB0000002105C08602878B0B16878A0B138785D
:102BC00042F61562C0F60002105C0860287858B121
:102BD000687848B1387842F61562C0F60002105C99
:102BE000086028780028D2D1C1F80080FFF7C0F92A
:102BF00043F2351200200021C0F60002FFF7D8FA98
:102C00006420FDF7C1FEFFF7B3F90120A7F80280A9
:102C1000A7F80480A7F80680287087F800806870FD
:102C200028E500BFEFF3108072B600BFFEE700BFDB
:102C3000EFF3108072B600BFFEE700BFEFF3108025
:102C400072B600BFFEE700BFEFF3108072B600BFA0
:102C5000FEE700BFEFF3108072B600BFFEE700BFD3
:102C6000EFF3108072B600BFFEE700BFEFF31080F5
:102C700072B600BFFEE700BFEFF3108072B600BF70
:102C8000FEE700BF77616974696E672E2E2E000023
:102C9000667265712069732025303664000000007B
:102CA0006475206973202530366400006D6F64659B
:102CB0006C2069732025303164000000646F6E65FC
:102CC00020636F6E666967007361775F746F6F74FE
:102CD00068000000747269616E676C650000000036
:102CE0007374657000000000616273007371756138
:102CF00072652070756C73650000000073696E006A
:102D000030380A2801D20120704700207047F1EEC8
:102D1000100A4FF6FF71C0F2C03120EA010040F006
:102D20004070E1EE100A7047040000080000000047
:102D30000000000200010000100000000000000080
:102D40000001020304060708097F83878B8F93978E
:102D50009B9FA2A6AAAEB1B5B9BCC0C3C6CACDD00E
:102D6000D3D6D9DCDEE1E3E6E8EAECEEF0F2F4F506
:102D7000F6F8F9FAFBFCFCFDFDFEFEFEFEFEFDFD95
:102D8000FCFCFBFAF9F8F6F5F4F2F0EEECEAE8E612
:102D9000E3E1DEDCD9D6D3D0CDCAC6C3C0BCB9B559
:102DA000B1AEAAA6A29F9B97938F8B87837F8387C1
:102DB0008B8F93979B9FA2A6AAAEB1B5B9BCC0C397
:102DC000C6CACDD0D3D6D9DCDEE1E3E6E8EAECEE44
:102DD000F0F2F4F5F6F8F9FAFBFCFCFDFDFEFEFE60
:102DE000FEFEFDFDFCFCFBFAF9F8F6F5F4F2F0EE60
:102DF000ECEAE8E6E3E1DEDCD9D6D3D0CDCAC6C33F
:102E0000C0BCB9B5B1AEAAA6A29F9B97938F8B8782
:102E1000830040145400010304050608090A0B0D41
:102E20000E0F11121314161718191B1C1D1E20212A
:102E30002224252627292A2B2C2E2F3032333435D5
:102E40003738393A3C3D3E40414243454647484A7F
:102E50004B4C4D4F50515354555658595A5B5D5E2B
:102E60005F61626364666768696B6C6D6E707172D6
:102E700074757677797A7B7C7E7F80828384858780
:102E800088898A8C8D8E90919293959697989A9B2B
:102E90009C9D9FA0A1A3A4A5A6A8A9AAABADAEAFD7
:102EA000B1B2B3B4B6B7B8B9BBBCBDBEC0C1C2C481
:102EB000C5C6C7C9CACBCCCECFD0D2D3D5D7D8D927
:102EC000DADCDDDEE0E1E2E3E5E6E7E8EAEBECEDC3
:102ED000EFF0F1F3F4F5F6F8F9FAFBFDFF7F8387E5
:102EE0008B8F93979B9FA2A6AAAEB1B5B9BCC0C366
:102EF000C6CACDD0D3D6D9DCDEE1E3E6E8EAECEE13
:102F0000F0F2F4F5F6F8F9FAFBFCFCFDFDFEFEFE2E
:102F1000FEFEFDFDFCFCFBFAF9F8F6F5F4F2F0EE2E
:102F2000ECEAE8E6E3E1DEDCD9D6D3D0CDCAC6C30D
:102F3000C0BCB9B5B1AEAAA6A29F9B97938F8B8751
:102F4000837F7B77736F6B67635F5C5854504D4929
:102F500045423E3B3834312E2B282522201D1B189C
:102F6000161412100E0C0A090806050403020201C9
:102F70000100000000000101020203040506080927
:102F80000A0C0E10121416181B1D202225282B2E99
:102F90003134383B3E4245494D5054585C5F63677D
:102FA0006B6F73777B0000000000000000000000E2
:102FB0000000000000000000000000000000000011
:102FC0000000000000000000000000000000000001
:102FD00000000000000000000000000000000000F1
:102FE00000000000000000000000000000000000E1
:102FF00000000000000000000000000000000000D1
:103000000000000000000000007F7F7F7F7F7F7F47
:103010007F7F7F7F7F7F7F7F7F7F7F7F7F7F7F7FC0
:103020007F7F7F7F7F7F7F7F7F7F7F7F7F7F7F7FB0
:103030007F7F7F7F7F7F7F7F7F7F7F7F7F7F7F7FA0
:103040007F7F7F7F7F7F7F7F7F7F7F7F7F7F7F7F90
:103050007F7F7F7F7F7F7F7F7F7F7F7F7F7F7F7F80
:103060007F7F7F7F7F7F7F7F7F7F7F7F7F000000ED
:1030700000001414141414141426262626262626BA
:10308000383838383838384A4A4A4A4A4A4A5C5CFA
:103090005C5C5C5C5C6E6E6E6E6E6E6E8080808062
:1030A00080808092929292929292A4A4A4A4A4A4CA
:1030B000A4B6B6B6B6B6B6B6C8C8C8C8C8C8C8DA20
:1030C000DADADADADADAECECECECECECECFEFEFE76
:1030D000FEFEFEFEFEECECECECECECECDADADADA1E
:1030E000DADADAC8C8C8C8C8C8C8B6B6B6B6B6B696
:1030F000B6A4A4A4A4A4A4A4929292929292928020
:103100008080808080806E6E6E6E6E6E6E5C5C5CA9
:103110005C5C5C5C4A4A4A4A4A4A4A383838383821
:103120003838262626262626261414141414141499
:103130000000000000494E54455255505400000311
:1031400005080A0D0F121417191C1E212426292BFD
:103150002E303335383A3D404245474A4C4F515462
:1031600056595B5E616366686B6D707275777A7CC9
:103170007F828487898C8E919396989B9DA0A3A52E
:10318000A8AAADAFB2B4B7B9BCBEC1C4C6C9CBCE94
:10319000D0D3D5D8DADDE0E2E5E7EAECEFF1F4F6FA
:1031A000F9FBFEFBF9F6F4F1EFECEAE7E5E2E0DD2E
:1031B000DAD8D5D3D0CECBC9C6C4C1BEBCB9B7B49A
:1031C000B2AFADAAA8A5A3A09D9B989693918E8C13
:1031D000898784827F7C7A777572706D6B6866638D
:1031E000615E5B595654514F4C4A474542403D3A07
:1031F000383533302E2B292624211E1C1917141282
:103200000F0D0A0805030000283200080000002006
:1032100010000000D0010008383200081000002023
:1032200058070000EC010008010100000100000047
:08323000100000000024F4006E
:040000050800019559
:00000001FF
