:020000040800F2
:1000000018070020450200088D1E0008091B000883
:10001000891E000881090008951F000800000000E3
:10002000000000000000000000000000791F000830
:100030008509000800000000911E00087D1F0008CF
:100040005F0200085F0200085F0200085F0200080C
:100050005F0200085F0200085F0200085F020008FC
:100060005F0200085F0200085F0200085F020008EC
:100070005F0200085F0200085F0200085F020008DC
:100080005F0200085F0200085F0200080000000035
:100090000000000000000000000000005F020008F7
:1000A0005F0200085F0200085F0200085F020008AC
:1000B0005F0200085F0200085F0200085F0200089C
:1000C0005F0200085F0200085F0200085F0200088C
:1000D0005F0200085F0200085F02000800000000E5
:1000E0005F0200085F0200085F02000800000000D5
:1000F0000000000000000000000000005F02000897
:10010000000000005F0200085F0200085F020008B4
:1001100000000000000000000000000000000000DF
:100120005F0200085F0200085F0200085F0200082B
:100130005F02000800000000000000000000000056
:100140000000000000000000000000005F02000846
:100150005F0200085F0200085F0200085F020008FB
:100160005F0200085F0200080000000000000000BD
:10017000000000000000000000000000000000007F
:10018000000000005F020008000000000000000006
:100190005F02000800F002F800F045F80AA090E8BD
:1001A000000C82448344AAF10107DA4501D100F032
:1001B0003AF8AFF2090EBAE80F0013F0010F18BFBA
:1001C000FB1A43F0010318471C2600003C260000E0
:1001D000103A24BF78C878C1FAD8520724BF30C873
:1001E00030C144BF04680C60704700000023002445
:1001F00000250026103A28BF78C1FBD8520728BF37
:1002000030C148BF0B607047642900F01F81002097
:1002100070471FB502F09CFA9DE8030000F034FA25
:100220001FBD10B510BD00F029FB1146FFF7F1FF0F
:1002300001F0B2FE00F047FB03B4FFF7F2FF03BC8E
:1002400000F078FB0948804709480047FEE7FEE7D1
:10025000FEE7FEE7FEE7FEE7FEE7FEE7FEE7FEE776
:1002600004480549054A064B70470000811F0008F5
:10027000950100081801002018070020180300202D
:100280001803002070B5064600F0E2F9056806F193
:100290000B0020F00704B4429CBF002070BD2B4629
:1002A0006A68BAB11068A04210D304F1080188420C
:1002B0003CBF5068586007D35168101941601168FD
:1002C000091B016058601460101D70BD1346526810
:1002D000002AE7D12146284600F0C2F90028DED1E5
:1002E00070BD53EA020C00F069802DE9F04B4FF02D
:1002F0000006002B1FBFB3FA83F503FA05F424FAB6
:1003000005F65E4012BF1643B2FA82F502FA05F412
:10031000C5F120051EBF22FA05FC44EA0C04203575
:1003200056EA044C4FEA144418BF641C4FF000080E
:100330004FF00009904271EB030C39D3002919BF2B
:10034000B1FA81F701FA07F6B0FA80F700FA07F67A
:10035000C7F120071EBF20FA07FC46EA0C0620372B
:10036000B6FBF4FCA7EB0507103F07F01F0BCBF122
:1003700020062CFA06F60CFA0BFB44BFB346002607
:10038000202FA4BF5E464FF0000B5BEA060C08BFAF
:100390004FF0010B19EB0B0948EB0608ABFB027C95
:1003A00006FB02CC0BFB03CCC01B71EB0C01C1E7BD
:1003B0000B46024641464846BDE8F08B13B508435C
:1003C00018BF4FF0FF300146AFF30080BDE81C407E
:1003D000704700000FB41CB5074B06AA7B44694662
:1003E0000090059800F00BFA0020694600F01AFA18
:1003F0001CBC5DF814FB00004504000070B5044609
:1004000085690068C10601D5302600E02026C007B6
:1004100007D070BDD4E9012130469047206A401CC6
:1004200020626D1EF6D570BD70B5044685690078F2
:10043000C00707D170BDD4E9012120209047206A70
:10044000401C20626D1EF6D570BD00002DE9F04104
:100450000646002410687529314616A510D0AFF362
:100460000080002802DA404213A507E031688A07BD
:1004700001D512A502E0490704D511A5012401E028
:10048000AFF3008000210A2206F1240709E0B0FB47
:10049000F2FCB0FBF2F302FB1C003030785418463B
:1004A000491C0028F3D123462A463046BDE8F041D6
:1004B00000F047B9000000002D0000002B000000F4
:1004C000200000002DE9F05F894604464FF0000A45
:1004D000DFF824B1FB44C0F820A02046E16888473B
:1004E00000287DD0252806D0D4E901219047206A34
:1004F000401C2062F1E700255F462046E1688847FE
:100500002028064607DB312E05D2B81910F8200C3A
:1005100008B10543F1E7A80701D525F00405C4F8A3
:100520001CA00027C4F818A02A2E09D0304602F0DB
:1005300008F938B304EB8708303EC8F8186019E0B2
:1005400059F8041B204604EB87029161E168884753
:10055000012F064618D1E069002820DA25F0200591
:100560001DE0D8F8180000EB800006EB40003038A2
:10057000C8F818002046E1688847064602F0E1F80E
:100580000028EED1012F0AD02E2E08D12046E16896
:1005900088477F1C0646022F45F02005C4DBA06972
:1005A000002803DA404245F00105A061E80701D0C8
:1005B00025F01005A6B1A6F14100192802D8203671
:1005C00045F400654A463146204625604D46FFF712
:1005D0001BFE60B1012807D0ED1D25F0070000E0EB
:1005E00007E000F1080978E705F1040975E73046EE
:1005F0007AE7206ABDE8F09F922200004FF00002E7
:1006000000B5134694469646203922BFA0E80C5008
:10061000A0E80C50B1F12001BFF4F7AF090728BFE3
:10062000A0E80C5048BF0CC05DF804EB890028BF5F
:1006300040F8042B08BF704748BF20F8022B11F088
:10064000804F18BF00F8012B704770477047704704
:100650000048704718000020704770477047704787
:1006600038B504460A4600206946AFF300800028EA
:1006700008BF38BD02460099204600F0DDF8012091
:1006800038BD012000F0F2B8F8B5AFF300800546A0
:1006900000200C46102000BF0646A819A0420DD924
:1006A000324669460020AFF30080070008BF00F023
:1006B000DDF80098A04218BF0546C419FFF7C8FF2F
:1006C00005600746F01D20F007004619284600F097
:1006D0000AF8B44208BFF8BDA21B31463868BDE82D
:1006E000F84000F0A9B800210160C0E9011070478E
:1006F0001020704770B50446051FFFF7A9FF00687A
:10070000002C14BF446870BD002C18BFAC423CBF25
:1007100020466468F8D301680A18AA4218BF4560E9
:1007200003D12A6805461144016028684119A14295
:100730001CBF6C6070BD61686960216808442860F6
:1007400070BD2DE9F0470D4699469246044600F1EA
:1007500024080168880604D5E06921F010012160B1
:1007600000E00120A84201DD471B00E00027A1694D
:100770007A1902EB0900081AA0612078C00602D499
:100780002046FFF73BFE002608E0D4E901211AF8D5
:1007900006009047206A401C761C20624E45F4DB20
:1007A0002078C0060AD52046FFF728FE06E0D4E9E7
:1007B000012130209047206A401C2062381EA7F19A
:1007C0000107F4DC07E0D4E9012118F8050090479F
:1007D000206A401C2062281EA5F10105F3DC20469A
:1007E000FFF722FE2078000602D50220BDE8F08740
:1007F0000120FBE701694A1C02610878704700B5D7
:100800008FB0CDE901310021059105497944CDE949
:10081000031011466846FFF755FE0FB000BD0000FB
:10082000E5FFFFFF0A6802F8010B0A60704700004D
:100830000048704710000020034640688C4600289E
:1008400018BF88423CBF03464068F8D31868184474
:10085000884207D00CF1030020F00700001D411A68
:10086000521A0146081D0A60FFF744BF10B500F098
:1008700039F8BDE8104000F02FB870477546FFF713
:10088000D7FFAE4605006946534620F0070085466F
:1008900018B020B5FFF7E4FCBDE820404FF000069B
:1008A0004FF000074FF000084FF0000BAC46ACE8EB
:1008B000C009ACE8C009ACE8C009ACE8C00921F047
:1008C00007018D46704710B50446AFF300802046FF
:1008D000BDE81040FFF7B0BC002801D000F02AB8F6
:1008E0007047000010B5012805D0002103A000F0DA
:1008F00027F8012010BD09A1F8E70000534947522D
:10090000544D454D3A204F7574206F6620686561DF
:1009100070206D656D6F7279000000003A204865A7
:100920006170206D656D6F727920636F7272757082
:100930007465640001491820ABBEFEE72600020082
:1009400070B505460C460A2000E06D1C00F011F859
:1009500035B128780028F8D102E0641C00F009F8CD
:1009600014B120780028F8D1BDE870400A20AFF318
:10097000008008B569468DF800000320ABBE08BDB5
:10098000FEE700007047000070B581B000220092C1
:1009900090F83C20012A03D10221084601B070BD25
:1009A0000E6801220A2E80F83C2009D3B2B2520010
:1009B000D0F800E012FA86F21E3A0EF10C0305E0C0
:1009C000D0F800E006EB46020EF110034FF0070CE2
:1009D0001D680CFA02F4A5431D608D681C6805FAB9
:1009E00002F222431A60496806290FD801EB8101FF
:1009F0004A1F71461F2351F8345F934025EA0303D1
:100A00000B60B3B203FA02F214E000BF01EB810302
:100A10000C29B2B204D8714651F8304F233B03E0A1
:100A2000714651F82C4F413B1F259D4024EA050596
:100A30009A400D600B6842F2043CC4F2010C1A4368
:100A4000ACF541739E450A603BD1122E06D1DCF80D
:100A5000001041F48001CCF8001032E026F00101D2
:100A600010292ED1DCF80010102E41F40001CCF832
:100A7000001026D140F20801C2F2000109684DF6CB
:100A80008362C4F21B32A1FB0212910C01EB8101C3
:100A9000490000910099A1B1009901390091009994
:100AA00079B1009901390091009951B1009901394A
:100AB0000091009929B1009901390091009900290C
:100AC000EAD1002180F83C10084601B070BD00005A
:100AD0000068C06C70470000002804BF0120704708
:100AE00010B50446006C00283ED0206CC00645D4EA
:100AF000206C41F202118843023042F2043120643A
:100B0000C4F20101086820F4403008600A6894E8E3
:100B100009101A43D4F810E00A604168012321F457
:100B2000807141604168C0F6007341EA0E21416066
:100B3000416821F040714160416841EA0C01416027
:100B4000816821F400618160E168826811438160FD
:100B5000A16A8268994222F070628260826813D131
:100B600022F0405119E000BF204600F065F8002057
:100B7000606484F83C00206CC006B9D501200021D7
:100B800084F83C1010BD00BF11438160816821F0E2
:100B900040518160E16A826811438160816821F07F
:100BA000020181608168227E94F8203041EA42018E
:100BB0008160416883B141F40061416041684EF257
:100BC000000221F460414160616ACFF6FF72436820
:100BD00002EB4131194301E021F400614160C16A37
:100BE00040F2000C21F47001C162E2696169CFF644
:100BF000F07CC36A0CEB02521A43C262826822F490
:100C00000072826094F83020836843EA4222826056
:100C1000826822F480628260826842EA8121816077
:100C200000206064216C012262F301012164002133
:100C300084F83C1010BD000080B586B042F200017F
:100C40000068C4F20101002288420592049201D09A
:100C500006B080BD43F630000092C4F20200436942
:100C600043F480734361436903F480730093009BF2
:100C70000092036843F001030360006800F0010084
:100C800000900098102001900320CDE9020201F5A8
:100C9000604001A900F034F906B080BD70B504468B
:100CA00000680D468268520544BF80685FEAC05004
:100CB00038D400F00DFA21680A68920749D4064634
:100CC000681C3CD0DDB90868800721D5086880071A
:100CD0003FD4086880071BD50868800739D40868A6
:100CE000800715D50868800733D4086880070FD5BA
:100CF00008688007E7D52CE00868800729D400F051
:100D0000E7F9801B2168A842F6D908688007F3D468
:100D1000206C40F004002064002084F83C00032094
:100D200070BD00BF206C40F020002064002084F8DB
:100D30003C00012070BD00BF0868800709D4086826
:100D4000800706D4086880075CBF08685FEA807087
:100D5000F2D56FF012000860206C40F4007020643F
:100D6000886810F0405F01D1207E08B1002070BD7E
:100D7000C86A10F4700F02D088684005F6D4206C61
:100D800020F480702064206CC004EFD4206C40F00C
:100D900001002064002070BD10B581B000210091D9
:100DA00090F83C10012903D1022001B010BD00BF12
:100DB0000468012180F83C10214651F8083FDB0708
:100DC00029D10B684DF6836243F001030B6040F2BA
:100DD0000803C2F200031B68C4F21B32A3FB022308
:100DE0009A0C02EB42020092009AA2B1009A013AD8
:100DF0000092009A7AB1009A013A0092009A52B198
:100E0000009A013A0092009A2AB1009A013A00929F
:100E1000009A002AEAD10A68036CD2070AD143F08B
:100E20001001016400F1440101200A6810430860C8
:100E300034E000BF40F2017223EA020202F5807240
:100E400002646268520504D5026C012363F30D321B
:100E50000264026C4FF0000C0023D20444BF426CC9
:100E600022F0060342F2000E436480F83CC06FF0AB
:100E70002200C4F2010E2060DEF80403C00609D08F
:100E800074450BD1DEF8080010F0405F06D14FF03A
:100E90008040CAE7086810F0405FF8D0002001B039
:100EA00010BD000090F83C10012904BF02207047DB
:100EB00001688A6822F001028A608968C90705D141
:100EC000016C41F20112914301310164002180F86B
:100ED0003C10084670470000B0B5044600F0F8F832
:100EE000054640F20000C2F200000078611C18BF05
:100EF000044400BF00F0ECF8401BA042FAD3B0BDA0
:100F00002DE9F04F82B000F13E4241F2000502F1BE
:100F1000FF77C4F20205072243F6004E4FEAB726D8
:100F2000A84208BF0422C4F2010E042E38BF4FEAC3
:100F3000B7220125002600274FF00008009208E0A4
:100F400008F101080437B8F1100F06F1020600F0AD
:100F5000A7800C6805FA08F914EA090FF0D0D1F857
:100F600004B003220BF0030CACF10104B240012CDD
:100F70006FEA020A10D88268CC6802EA0A02B4401A
:100F8000224382604268CBF3001422EA090204FA89
:100F900008F42243426005E0BCF1030F02D14FF098
:100FA000030C20E0C2688C6802EA0A02B4402243C3
:100FB000BCF1020FC26016D16FF0030202EA5802C0
:100FC0000244D2F820C007F01C050F230C69AB4087
:100FD0002CEA030304FA05F52B431362D1F804B09D
:100FE00001250BF0030C02680CFA06F302EA0A0270
:100FF0001A431BF4403F0260A2D0002243F6440390
:101000000192C4F202031A684FF6084C42F480427F
:101010001A601A68CFF6FF7C02F480420192019AAE
:1010200028F00302724452F80C3007F00C050F242C
:10103000AC40A343009C04FA05F52B4342F80C3066
:10104000DEF808204B6842EA090543F60C4CDC0246
:1010500058BF22EA0905CEF80850C4F2010CDCF8AA
:1010600000209C0242EA090558BF22EA0905CCF893
:101070000050DEF804209C0342EA090558BF22EA2A
:101080000905CEF80450DEF80020DB0342EA09052A
:1010900058BF22EA0905CEF80050012550E700BFED
:1010A00002B0BDE8F08F00000069084018BF0120C1
:1010B00070470000426902EA0103914341EA03419B
:1010C00081617047002A08BF0904816170470000F0
:1010D00040F21410C2F200000068704740F20000B5
:1010E00040F21411C2F20000C2F2000100780A6856
:1010F000104408607047000080B543F60040C4F219
:101100000200016841F400710160016841F48061EE
:101110000160016841F480710160032000F074F8FF
:101120000F2000F005F800F027F8002080BD000037
:1011300070B540F20006C2F2000640F208013278B3
:10114000C2F200014FF47A730968B3FBF2F204466D
:10115000B1FBF2F1084600F0C1FC0F2C4FF0010585
:1011600008D838B94FF0FF3021460022002500F0A2
:101170001FF87460284670BD82B0002043F640011D
:101180000190C4F202014A6842F480424A604A680F
:1011900002F480420192019A0090086840F0805069
:1011A0000860086800F080500090009802B0704716
:1011B00010B54EF60C5CCEF2000CDCF80030C3F338
:1011C000022E8EF00704042C28BF0424BEF1030372
:1011D0004FF0FF3E0EFA04F438BF0023A1439940BC
:1011E0000EFA03F39A43114300F00F0200F160433B
:1011F0000901043A03F564436244002848BF02F140
:101200000C03197010BD00004EF60C51CEF2000117
:101210000A684FF6FF031A4060F30A2242F080602A
:1012200040F0FD70086070472DE9F041002800F0A3
:101230008B8043F60808C4F202080446D8F8F80385
:101240000D4600F00700884207D288F8F853D8F816
:10125000F80300F00700A84276D12068810717D56F
:10126000410705D5D8F8001041F4E051C8F8001046
:10127000010705D5D8F8001041F46041C8F8001006
:10128000D8F80010A26821F0F0011143C8F800104E
:10129000C0073FD1D8F8F80300F00700A84207D9EB
:1012A00088F8F853D8F8F80300F00700A8424BD1AB
:1012B0002068410707D5D8F80010E26821F4E05112
:1012C0001143C8F80010000708D5D8F800002169BC
:1012D00020F4604040EAC100C8F8000000F054F873
:1012E000D8F8001042F2AC72C1F30311C0F600024C
:1012F000515C40F2080220FA01F140F20400C2F20F
:1013000000000068C2F200021160FFF711FF002028
:10131000BDE8F0816068811E022907D258F8081CD8
:1013200089015CBF0120BDE8F08111E0012807D1EF
:1013300058F8081C89035CBF0120BDE8F08107E074
:1013400058F8081C890703D40120BDE8F08100BFCC
:10135000D8F8001021F003010843C8F80000FFF797
:10136000B7FE064641F28837D8F80000616800F001
:101370000C00B0EB810F8DD0FFF7AAFE801BB842A6
:10138000F2D90320BDE8F08110B543F60404C4F29D
:101390000204606800F00C0008280BD0042819BF74
:1013A00042F20040C0F2F40047F64000C0F27D1067
:1013B00010BD00BF206821682368490247F640013C
:1013C000C0F27D1100F03F02C3F388105CBF42F20F
:1013D0000041C0F2F401A1FB00010023FEF781FFF0
:1013E00021680222C1F3014102EB4101B0FBF1F09F
:1013F00010BD00002DE9F04182B0002868D00446FD
:10140000007843F60006C007C4F202060BD0B068AD
:1014100000F00C00042840F09F803068800302D563
:101420006068002854D0207880071AD5B06810F082
:101430000C0F09D0B06800F00C00082840F0A6801E
:101440007068400200F1A2803068800702D5E06831
:1014500001283DD13068216920F0F80040EAC10040
:1014600030602078000737D4207840074CD4A56935
:1014700055B3B06800F00C00082840F0BB80012D87
:1014800026D07068E16900F480028A4220D1216A86
:1014900000F03F028A421BD147F6C071626A0140E8
:1014A000B1EB821F14D1A16A4FF6FF73C9039943B0
:1014B00000F44032A1F580318A4209D1E16A00F09E
:1014C0007060B0EB016F03D1002002B0BDE8F08185
:1014D000012002B0BDE8F0816069002840F2000000
:1014E000C4F2472076D00121C0F8801EFFF7F0FD3E
:1014F000054600BF706F8007B6D4FFF7E9FD401BBB
:101500000228F7D9DDE000BF306C10F080580AD116
:1015100000200190306C40F080503064306C00F05E
:1015200080500190019847F20007C4F20007386824
:10153000C00541D4386840F480703860FFF7C8FDBA
:10154000054600BF3868C00536D4FFF7C1FD401B13
:101550000228F7D9B5E000BFB06800F00C000828F9
:1015600003D1706840023FF558AF6068B0F5803F26
:1015700007D0B0F5A02F40F08D80306840F4802077
:101580003060306840F4803030608DE0E0680028E2
:1015900052D00020C4F2472001210160FFF798FDDE
:1015A000054600BF306880073FF554AFFFF790FD58
:1015B000401B0228F6D984E0A068012805D0052840
:1015C0004ED1306F40F004003067306F40F00100C2
:1015D00030674FE00021C0F8801EFFF779FD054617
:1015E000706F80077FF540AFFFF772FD401B022848
:1015F000F6D966E00027C4F2472700203866FFF7D7
:1016000067FD022D05460BD1306880015ED5FFF7DE
:101610005FFD401B02284FF00300F5D955E700BFDE
:10162000306880017FF550AFFFF752FD401B022864
:101630004FF00300F4D948E70020C4F2472000210E
:101640000160FFF745FD0546306880077FF509AF6B
:10165000FFF73EFD401B02284FF00300F4D934E7AA
:10166000316F002821F001013167316F21F0040151
:1016700031674DD0FFF72CFD054641F2883700BF9A
:10168000306F800756D4FFF723FD401BB842F7D9CF
:1016900017E000BF3168002821F4803131603168E3
:1016A00021F4802131604FD0FFF712FD054600BFC5
:1016B000306880033FF5B7AEFFF70AFD401B642892
:1016C000F6D9032002B0BDE8F08100BF04F11C058B
:1016D0002FCD084340EA8210D9034FF6FF729143A1
:1016E000A1F5803140EA056008437060012038664A
:1016F000FFF7EEFC044600BF306880013FF5E4AE22
:10170000FFF7E6FC001B02284FF00300F4D9DCE6EB
:10171000FFF7DEFC054641F2883700BF306F8007D7
:1017200008D5FFF7D5FC401BB8424FF00300F5D9B0
:10173000CBE600BFB8F1000F7FF499AE306C20F01B
:101740008050306493E600BFFFF7C2FC054600BF3F
:10175000306880037FF567AEFFF7BAFC401B642852
:101760004FF00300F4D9B0E670B538B10446406AD2
:1017700030B10020206104F1140007E0012070BDA9
:101780006068B0F5827F03D004F11C000021016085
:101790000026A66294F8510020B9204684F85060D3
:1017A00000F03CF8022084F8510094E80F0001F4A6
:1017B0008271056802F4044225F040050560114479
:1017C00003F400622369114403F0020263691144C7
:1017D00003F00102A369E569114403F400721144A6
:1017E00005F03802256A114405F08002A56A11430C
:1017F00005F4005211430160626A042101EA1341B9
:1018000002F0100211444160C16921F40061C1611C
:101810000120666584F85100304670BD80B586B001
:10182000016843F20000C4F20100814202D006B018
:1018300080BD00BF002143F630020191C4F20202D4
:10184000536900F5504043F480535361536903F4E6
:1018500080530193019B0191136843F001031360CE
:10186000126802F001020192019A48F2E00201922C
:101870000222CDE90221032104910521059101A94C
:10188000FFF73EFB06B080BD2DE9F04383B0044670
:1018900090F85000012803D1022003B0BDE8F08386
:1018A0004FF001091D4616460F4684F85090FFF789
:1018B0000FFC94F85110012944D18046002F4FF0BD
:1018C000010018BF002E00F0D6800320002184F80C
:1018D000510061652763A686E686A163A187E1873B
:1018E000A0682164B0F5004F2068616407D10168E9
:1018F00021F040010160016841F48041016001680C
:10190000490603D4016841F0400101606168731E1B
:10191000E268B1FA81F1B3FA83F349095B09B2F5E0
:10192000006F41EA03013DD131B137F8021BC160BC
:101930002763E08E0138E086E08E00286CD0681CBA
:101940000DD11EE0022096E0216B31F8022BC2601F
:101950002163E08E0138E086E08E00285CD02068AC
:1019600081688907F0D4FFF7B3FBA0EB0800A84219
:10197000F2D303207FE000BFFFF7AAFBE08E002830
:101980004AD0206881688907F6D5216B31F8022B8F
:10199000C2602163E08E0138E086E08E0028F0D13D
:1019A0003AE000BF39B139780173206B0130206310
:1019B000E08E0138E086E08E70B3681C0BD11BE02E
:1019C000216B09780173206B01302063E08E0138B0
:1019D000E086E08E00B3206881688907F0D4FFF7C5
:1019E00077FBA0EB0800A842F3D3032043E000BF3D
:1019F000FFF76EFBE08E78B1206881688907F7D524
:101A0000216B09780173206B01302063E08E01386F
:101A1000E086E08E0028EFD140F20800C2F200001C
:101A2000006849F68171C1F25E61A0FB0101480DB9
:101A30004FF47A71484302906068B0F5827F23D1F9
:101A4000204680212A46434600F024FA28B1606DE2
:101A500040F02000606520206065A06838B9002053
:101A600001902068C1680191806801900198606DC3
:101A7000002818BF0120002184F8519084F85010EC
:101A800003B0BDE8F08300BF02980028E5D00298BB
:101A900001380290206880680006DED50298002890
:101AA000DBD0029801380290206880680006D4D507
:101AB00002980028D1D002980138029020688068EE
:101AC0000006CAD502980028C7D0029801380290B3
:101AD000206880680006D7D4BFE70000411E0020C0
:101AE000B0EB116F1CBF012070474EF21002CEF216
:101AF000000251604EF62351CEF20001F0230B702C
:101B00000721906011607047FEE7000080B500205B
:101B1000C4F202004FF400710022FFF7D3FA002054
:101B200000F008F8012000F005F80520BDE880402D
:101B3000FFF7D2B92DE9F04740F200440546C4F260
:101B400002044EF2180AA4F5806005F008024FF472
:101B50008071CEF2000AFFF7B5FA05F004022046C4
:101B60004FF48061FFF7AEFA05F002022046102123
:101B7000FFF7A8FA05F0010220462021FFF7A2FA9C
:101B800004F58069484680210122FFF79BFA5AF844
:101B9000040C44F6D3580130C1F26208A0FB0801DE
:101BA0008F09FFF795FADAF800100546B1FBF7F454
:101BB0004FF47A76FFF78CFADAF80010401BB1FB8D
:101BC000F7F1611A00FB06103228F3D34846802152
:101BD0000022FFF777FA5AF8040C0130A0FB080145
:101BE0008D09FFF775FADAF800100446B1FBF5F736
:101BF0004FF47A76FFF76CFADAF80010001BB1FBAD
:101C0000F5F1791A00FB06103228F3D3BDE8F0870E
:101C1000F0B585B00120002401900220C4F2020436
:101C200003904FF400706D4600270090204629462F
:101C30000297FFF765F98020009004F500602946BF
:101C4000FFF75EF90820009020462946FFF758F973
:101C5000202004F58066009030462946FFF750F9B1
:101C60001020009030462946FFF74AF94FF4806073
:101C7000009030462946FFF743F94FF480700090FA
:101C800020462946FFF73CF9FFF722FAC72806D875
:101C90000120FFF721F9FFF71BFAC828F8D340F21B
:101CA0007005C2F200050320A5F80170FFF742FF9E
:101CB0000520FFF711F90320FFF73CFF0520FFF790
:101CC0000BF90320FFF736FF0520FFF705F9022087
:101CD000FFF730FF0520FFF7FFF820464FF40071B3
:101CE0000022FFF7EFF90220FFF724FF0820FFF79B
:101CF00021FF0420287020464FF400710022FFF7D6
:101D0000E1F90020FFF716FF0C20FFF713FF204634
:101D10004FF400710022FFF7D5F90020FFF70AFF0A
:101D20000120FFF707FF0520FFF7D6F820464FF404
:101D300000710022FFF7C6F90020FFF7FBFE062026
:101D4000FFF7F8FE0520FFF7C7F805B0F0BD00006B
:101D50002DE9F04F81B040F2700642F2BC7A0129C1
:101D600088BF0021C2F20006C0F6000A40F2000857
:101D7000B1701AF80110C4F20208144670700D1800
:101D800040464FF400710022EFB24FF00009FFF718
:101D900099F94FF0080B4BEA1710FFF7CBFE05F04F
:101DA0000F00FFF7C7FE2578002D6AD0671C13E0EF
:101DB00040464FF400710122FFF784F92009FFF734
:101DC000B9FE05F00F00FFF7B5FE707801307070B6
:101DD00017F8015B002D54D0707810281BD3B07811
:101DE00000220130C1B2012988BF0020C1B21AF817
:101DF0000140B07040464FF4007186F80190FFF743
:101E000061F94BEA1410FFF795FE04F00F00FFF79D
:101E100091FE17F8015CECB20D2C17D00A2CC7D13B
:101E2000B07871780130C2B2012A88BF0020C2B2F6
:101E30001AF80220B070541840464FF40071002286
:101E4000E5B2FFF73FF94BEA151010E0B0784FF418
:101E50000071012888BF00201AF80040B070404689
:101E6000002286F80190FFF72DF94BEA1410FFF7D6
:101E700061FE04F00F00FFF75DFE17F8015B002D17
:101E8000AAD101B0BDE8F08FFEE70000FEE7000038
:101E9000704700002DE9F04182B01E4690460D4685
:101EA0000446FFF715F9301A00EB0807FFF710F9A1
:101EB00040F20801C2F200010968C1F3CB31794355
:101EC000019121688A682A40AA4227D1064618F162
:101ED00001001FD0FFF7FCF8801BB84222D2019806
:101EE00001990028A1F1010101912168896808BFC9
:101EF000074601EA0500A842ECD00FE088682840B8
:101F0000A8420BD188682840A84207D18868284099
:101F1000A84203D188682840A842EFD0002002B030
:101F2000BDE8F081D4E900014268B1F5827F22F07A
:101F3000E00242600AD1A168B1F5004F02D0B1F5CC
:101F4000806F03D1016821F040010160A16AB1F501
:101F5000005F07D1016821F400510160016841F47C
:101F600000510160012084F85100002084F85000E5
:101F7000032002B0BDE8F08170470000FFF7AEB863
:101F80004EF68850CEF20000016841F47001016005
:101F900070470000FEE7000092B043F6300547F2BC
:101FA0000006C4F20205C4F20006FFF7A5F806AC6D
:101FB000201D2C21FEF722FB00270597CDE9037792
:101FC000CDE9017700972869022140F0805028610F
:101FD000286900F08050009000980097306861F305
:101FE0008F303060306800F440400090009801204D
:101FF000099010200A90204606910C97FFF7FAF9F5
:1020000020B1EFF3108072B6FEE700BF0F20CDE9DC
:10201000010701A80021CDE903770597FFF704F92F
:1020200020B1EFF3108072B6FEE700BF00270A97D9
:102030000197286806F5CC3440F004002860286831
:10204000072100F004000190019801972868002200
:1020500040F001002860286800F00100019001981C
:102060000197286840F0020028602868072500F0E2
:102070000200019001982046FFF724F8069506AD6E
:102080004FF0010820462946CDE907870997FEF75A
:1020900037FF7820CDE90607204629460897FEF746
:1020A0002FFF40F27400012206F53041C2F2000019
:1020B000C0F600720997077680F82070C0E90A27F9
:1020C000C0F81C8080F83070C0E90017C0E90277C2
:1020D000C0E90478FEF700FD20B1EFF3108072B67E
:1020E000FEE700BF0420CDE9060840F27400C2F20A
:1020F000000006A90897FEF747FC28B1EFF310800F
:1021000072B600BFFEE700BF40F2BC0006F54041DA
:10211000C2F200004FF4827200234FF4802780E85F
:102120000E000A21C0E90333C0E90537C361C0E9E5
:102130000833C0E90A31FFF717FB28B1EFF310802D
:1021400072B600BFFEE700BFFFF762FDABA204203E
:102150000021FFF7FDFD4FF4FA60FEF7BDFEFFF72B
:10216000D5FCA9A200200021FFF7F2FDABA20020C0
:102170000121FFF7EDFD41F28830FEF7ADFE42F29E
:10218000C075C0F6000506AE00F070F90446FFF712
:10219000BDFC304629462246FEF71CF900200021EE
:1021A0003246FFF7D5FD4FF4FA60FEF795FE601E4C
:1021B0000528E9D8FFF7AAFC9DA200200021FFF71F
:1021C000C7FD42F2C07106ADC0F6000128462246A6
:1021D000FEF700F9042001212A46FFF7B9FD4FF46C
:1021E000FA60FEF779FE0A20FEF776FEFFF78EFC16
:1021F00093A200200021FFF7ABFD00F0F7F940F2B9
:10220000011A0230C0F2100A35D040F2740542F2D1
:10221000C578C2F2000542F21C594FF4FA7BC0F6B1
:10222000000806AF2846FEF7B7FD28464FF0FF31FD
:10223000FEF734FD2846FEF74BFC06462846FEF71F
:1022400031FEB0B200FB09F0A0FB0A12801A02EBCB
:1022500050000BEBD026B2B238464146FEF7BAF832
:10226000FFF754FC042001213A46FFF771FD00F00E
:10227000BDF90230D6D1FFF749FC75A2002000213C
:10228000FFF766FD00F0B2F9023035D040F2740578
:1022900042F2C578C2F200054FF0010BC0F600080B
:1022A0000DF118092846FEF777FD28464FF0FF315B
:1022B000FEF7F4FC2846FEF70BFC07462846FEF71F
:1022C000F1FDB8B240F2E7314843A0FB0A12801A90
:1022D00002EB50000BEBD027484641463A46FEF74A
:1022E00079F8FFF713FC042001214A46FFF730FD7F
:1022F00000F07CF90230D5D106201FFA84FAFDF7F0
:10230000C1FF8146FFF702FCB8B2020A38BA42F2B6
:10231000D678000CC0F6000806ADA9F800002846E3
:102320004146FEF757F8002000212A46FFF710FD2E
:10233000FAB242F2CA77C0F6000728463946FEF7DD
:1023400049F8002001212A46FFF702FD4FF47A7078
:10235000FEF7C2FDFFF7DAFBB0B2020A30BA000C9A
:10236000A9F8020028464146FEF734F80020002173
:102370002A46FFF7EDFCF2B228463946FEF72AF866
:10238000002001212A46FFF7E3FC4FF47A70FEF7A4
:10239000A3FDFFF7BBFB20BA000C4FEA1A22A9F8F5
:1023A000040028464146FEF715F8002000212A4681
:1023B000FFF7CEFCE2B228463946FEF70BF80020C4
:1023C00001212A46FFF7C4FC4FF47A70FEF784FD22
:1023D000FFF79CFB40F2BC00C2F200004946062217
:1023E0004FF0FF33FFF750FA1EA200200021FFF745
:1023F000AFFC6420FEF770FDFEE700BF39393234D0
:102400003330313800000000312E73696E20322ED7
:1024100073717520332E616200000000342E7374D6
:102420007020352E74726920362E73610000000012
:10243000596F752063686F736520776176653A0020
:1024400073656C6563742074696D65203A000000E3
:1024500073656C656374206672657175656E63790A
:10246000203A0000646F6E6500000000B0B540F6D1
:102470000004C4F20204204607210122FEF722FED6
:10248000204678210122FEF71DFE2046042100226D
:102490000025FEF717FE1E20FEF71EFD2046082130
:1024A000FEF702FE002872D0002520461021FEF71C
:1024B000FBFD002866D020462021FEF7F5FD002810
:1024C00062D020464021FEF7EFFD00285ED0204676
:1024D00004210122FEF7F6FD20460221FEF7EAFD67
:1024E0001E20FEF7F9FC20460821FEF7DDFD00283E
:1024F00058D020461021FEF7D7FD002854D02046A2
:102500002021FEF7D1FD002850D020464021FEF7C3
:10251000CBFD00284CD020460221FEF7CBFD204603
:102520000121FEF7C7FD1E20FEF7D6FC204608213C
:10253000FEF7BAFD002847D020461021FEF7B4FD73
:10254000002843D020462021FEF7AEFD00283FD0D2
:1025500020464021FEF7A8FD00283BD0204601215F
:10256000FEF7A8FD204604210022FEF7ABFD1E2049
:10257000FEF7B2FC20460821FEF796FD002894D114
:1025800005E000BF012502E0022500E0032542F23C
:102590007C7105EB4500C0F6000101EB800000688E
:1025A000B0BD00BF002004E0012002E0022000E0F6
:1025B000032042F27C7100EB4000C0F6000101EB09
:1025C000800004300068B0BD002004E0012002E07B
:1025D000022000E0032042F27C7100EB4000C0F6D4
:1025E000000101EB800008300068B0BDB0B540F6D6
:1025F0000004C4F20204204607210122FEF762FD16
:10260000204678210122FEF75DFD204604210022AC
:102610000025FEF757FD1E20FEF75EFC2046082130
:10262000FEF742FD002860D020461021FEF73CFD59
:10263000002855D020462021FEF736FD002851D035
:1026400020464021FEF730FD00284DD020460421D1
:102650000122FEF737FD20460221FEF72BFD1E204A
:10266000FEF73AFC20460821FEF71EFD002845D063
:1026700020461021FEF718FD002841D020462021D9
:10268000FEF712FD00283DD020464021FEF70CFD4C
:10269000002839D020460221FEF70CFD20460121FA
:1026A000FEF708FD1E20FEF717FC20460821FEF766
:1026B000FBFCA8B320461021FEF7F6FC90B32046A1
:1026C0002021FEF7F1FC78B320464021FEF7ECFC18
:1026D00060B320460121FEF7EDFC6FF00900B0BDAC
:1026E000012502E0022500E0032542F27C7105EBA2
:1026F0004500C0F6000151F82000B0BD002004E004
:10270000012002E0022000E0032042F27C7100EB95
:102710004000C0F6000101EB80004068B0BD00BF82
:10272000002004E0012002E0022000E0032042F249
:102730007C7100EB4000C0F6000101EB8000806876
:10274000B0BD30380A2801D2012070470020704700
:10275000F1EE100A4FF6FF71C0F2C03120EA01001D
:1027600040F04070E1EE100A7047040000080000DD
:102770000000000000020001000010000100000045
:10278000020000000300000004000000050000003B
:10279000060000000700000008000000090000001B
:1027A000FFFFFFFF00000000FEFFFFFF0000000032
:1027B0000000000001020304060708090040145449
:1027C000253031640025303564006C7362206973F4
:1027D000202530386400256D736220697320253010
:1027E00038640000082800080000002010000000E5
:1027F000D001000818280008100000200807000079
:10280000EC010008000000000100000010000000C2
:082810000024F40000000000A8
:040000050800019559
:00000001FF
